{
  "_format": "hh-sol-artifact-1",
  "contractName": "GatewayCatalog",
  "sourceName": "contracts/Gateway_Catalog.sol",
  "abi": [
    {
      "inputs": [],
      "name": "catalogIpnsKey",
      "outputs": [
        {
          "internalType": "string",
          "name": "",
          "type": "string"
        }
      ],
      "stateMutability": "view",
      "type": "function"
    },
    {
      "inputs": [],
      "name": "outputIpnsKey",
      "outputs": [
        {
          "internalType": "string",
          "name": "",
          "type": "string"
        }
      ],
      "stateMutability": "view",
      "type": "function"
    },
    {
      "inputs": [],
      "name": "privateKeyCid",
      "outputs": [
        {
          "internalType": "string",
          "name": "",
          "type": "string"
        }
      ],
      "stateMutability": "view",
      "type": "function"
    },
    {
      "inputs": [
        {
          "internalType": "string",
          "name": "_caralog_ipns_key",
          "type": "string"
        }
      ],
      "name": "setCatalogIpnsKey",
      "outputs": [],
      "stateMutability": "nonpayable",
      "type": "function"
    },
    {
      "inputs": [
        {
          "internalType": "string",
          "name": "_output_ipns_key",
          "type": "string"
        }
      ],
      "name": "setOuputIpnsKey",
      "outputs": [],
      "stateMutability": "nonpayable",
      "type": "function"
    },
    {
      "inputs": [
        {
          "internalType": "string",
          "name": "_sk_cid",
          "type": "string"
        }
      ],
      "name": "setPrivateKeyCid",
      "outputs": [],
      "stateMutability": "nonpayable",
      "type": "function"
    }
  ],
  "bytecode": "0x608060405234801561001057600080fd5b50610694806100206000396000f3fe608060405234801561001057600080fd5b50600436106100625760003560e01c80632b7853ef14610067578063462659ee1461008557806379ad054f146100a3578063ad5c8576146100bf578063e20b937f146100db578063f378da5d146100f9575b600080fd5b61006f610115565b60405161007c9190610449565b60405180910390f35b61008d6101a3565b60405161009a9190610449565b60405180910390f35b6100bd60048036038101906100b891906105b4565b610231565b005b6100d960048036038101906100d491906105b4565b61024b565b005b6100e3610265565b6040516100f09190610449565b60405180910390f35b610113600480360381019061010e91906105b4565b6102f3565b005b600180546101229061062c565b80601f016020809104026020016040519081016040528092919081815260200182805461014e9061062c565b801561019b5780601f106101705761010080835404028352916020019161019b565b820191906000526020600020905b81548152906001019060200180831161017e57829003601f168201915b505050505081565b600280546101b09061062c565b80601f01602080910402602001604051908101604052809291908181526020018280546101dc9061062c565b80156102295780601f106101fe57610100808354040283529160200191610229565b820191906000526020600020905b81548152906001019060200180831161020c57829003601f168201915b505050505081565b806000908051906020019061024792919061030d565b5050565b806001908051906020019061026192919061030d565b5050565b600080546102729061062c565b80601f016020809104026020016040519081016040528092919081815260200182805461029e9061062c565b80156102eb5780601f106102c0576101008083540402835291602001916102eb565b820191906000526020600020905b8154815290600101906020018083116102ce57829003601f168201915b505050505081565b806002908051906020019061030992919061030d565b5050565b8280546103199061062c565b90600052602060002090601f01602090048101928261033b5760008555610382565b82601f1061035457805160ff1916838001178555610382565b82800160010185558215610382579182015b82811115610381578251825591602001919060010190610366565b5b50905061038f9190610393565b5090565b5b808211156103ac576000816000905550600101610394565b5090565b600081519050919050565b600082825260208201905092915050565b60005b838110156103ea5780820151818401526020810190506103cf565b838111156103f9576000848401525b50505050565b6000601f19601f8301169050919050565b600061041b826103b0565b61042581856103bb565b93506104358185602086016103cc565b61043e816103ff565b840191505092915050565b600060208201905081810360008301526104638184610410565b905092915050565b6000604051905090565b600080fd5b600080fd5b600080fd5b600080fd5b7f4e487b7100000000000000000000000000000000000000000000000000000000600052604160045260246000fd5b6104c1826103ff565b810181811067ffffffffffffffff821117156104e0576104df610489565b5b80604052505050565b60006104f361046b565b90506104ff82826104b8565b919050565b600067ffffffffffffffff82111561051f5761051e610489565b5b610528826103ff565b9050602081019050919050565b82818337600083830152505050565b600061055761055284610504565b6104e9565b90508281526020810184848401111561057357610572610484565b5b61057e848285610535565b509392505050565b600082601f83011261059b5761059a61047f565b5b81356105ab848260208601610544565b91505092915050565b6000602082840312156105ca576105c9610475565b5b600082013567ffffffffffffffff8111156105e8576105e761047a565b5b6105f484828501610586565b91505092915050565b7f4e487b7100000000000000000000000000000000000000000000000000000000600052602260045260246000fd5b6000600282049050600182168061064457607f821691505b60208210811415610658576106576105fd565b5b5091905056fea2646970667358221220d105620f075268df6bc3fb67df45480b35ea425cb5356b759a238a286b67656364736f6c63430008090033",
  "linkReferences": {},
  "deployedLinkReferences": {}
}