{"contracts/Catalog.sol":{"Catalog":{"abi":[{"anonymous":false,"inputs":[{"indexed":false,"internalType":"address","name":"farmScAddr","type":"address"}],"name":"FarmCreated","type":"event"},{"inputs":[],"name":"catalogIpnsKey","outputs":[{"internalType":"string","name":"","type":"string"}],"stateMutability":"view","type":"function"},{"inputs":[{"internalType":"string","name":"_farmId","type":"string"},{"internalType":"string","name":"_ipns_pk","type":"string"}],"name":"createFarm","outputs":[{"internalType":"address","name":"","type":"address"}],"stateMutability":"nonpayable","type":"function"},{"inputs":[],"name":"farmMenuListIpnsKey","outputs":[{"internalType":"string","name":"","type":"string"}],"stateMutability":"view","type":"function"},{"inputs":[],"name":"farmMenuListSecretKey","outputs":[{"internalType":"string","name":"","type":"string"}],"stateMutability":"view","type":"function"},{"inputs":[{"internalType":"string","name":"_farm_menu_ipns_key","type":"string"}],"name":"setFarmMenuListIpnsKey","outputs":[],"stateMutability":"nonpayable","type":"function"},{"inputs":[{"internalType":"string","name":"_farm_secret_key","type":"string"}],"name":"setFarmMenuListSecretKey","outputs":[],"stateMutability":"nonpayable","type":"function"},{"inputs":[{"internalType":"string","name":"_ipns_key","type":"string"}],"name":"setIpnsKey","outputs":[],"stateMutability":"nonpayable","type":"function"}],"evm":{"bytecode":{"linkReferences":{},"object":"608060405234801561001057600080fd5b506113be806100206000396000f3fe60806040523480156200001157600080fd5b5060043610620000885760003560e01c80638d18dded11620000635780638d18dded14620000ef578063b71cc0781462000111578063e20b937f1462000131578063e6aaf9cc14620001535762000088565b80630f5b7a92146200008d5780630fba35be14620000af5780634e72866514620000cf575b600080fd5b6200009762000189565b604051620000a6919062000584565b60405180910390f35b620000cd6004803603810190620000c791906200070d565b6200021f565b005b620000ed6004803603810190620000e791906200070d565b6200023b565b005b620000f962000257565b60405162000108919062000584565b60405180910390f35b6200012f60048036038101906200012991906200070d565b620002ed565b005b6200013b62000309565b6040516200014a919062000584565b60405180910390f35b6200017160048036038101906200016b91906200075e565b6200039f565b60405162000180919062000828565b60405180910390f35b60018054620001989062000874565b80601f0160208091040260200160405190810160405280929190818152602001828054620001c69062000874565b8015620002175780601f10620001eb5761010080835404028352916020019162000217565b820191906000526020600020905b815481529060010190602001808311620001f957829003601f168201915b505050505081565b80600290805190602001906200023792919062000422565b5050565b80600090805190602001906200025392919062000422565b5050565b60028054620002669062000874565b80601f0160208091040260200160405190810160405280929190818152602001828054620002949062000874565b8015620002e55780601f10620002b957610100808354040283529160200191620002e5565b820191906000526020600020905b815481529060010190602001808311620002c757829003601f168201915b505050505081565b80600190805190602001906200030592919062000422565b5050565b60008054620003189062000874565b80601f0160208091040260200160405190810160405280929190818152602001828054620003469062000874565b8015620003975780601f106200036b5761010080835404028352916020019162000397565b820191906000526020600020905b8154815290600101906020018083116200037957829003601f168201915b505050505081565b6000808383604051620003b290620004b3565b620003bf929190620008aa565b604051809103906000f080158015620003dc573d6000803e3d6000fd5b5090507f46963f16723a084f2199eb74021bd97647aa6c8960612a9a031ce509d40d4ca78160405162000410919062000828565b60405180910390a18091505092915050565b828054620004309062000874565b90600052602060002090601f016020900481019282620004545760008555620004a0565b82601f106200046f57805160ff1916838001178555620004a0565b82800160010185558215620004a0579182015b828111156200049f57825182559160200191906001019062000482565b5b509050620004af9190620004c1565b5090565b610aa380620008e683390190565b5b80821115620004dc576000816000905550600101620004c2565b5090565b600081519050919050565b600082825260208201905092915050565b60005b838110156200051c578082015181840152602081019050620004ff565b838111156200052c576000848401525b50505050565b6000601f19601f8301169050919050565b60006200055082620004e0565b6200055c8185620004eb565b93506200056e818560208601620004fc565b620005798162000532565b840191505092915050565b60006020820190508181036000830152620005a0818462000543565b905092915050565b6000604051905090565b600080fd5b600080fd5b600080fd5b600080fd5b7f4e487b7100000000000000000000000000000000000000000000000000000000600052604160045260246000fd5b620006008262000532565b810181811067ffffffffffffffff82111715620006225762000621620005c6565b5b80604052505050565b600062000637620005a8565b9050620006458282620005f5565b919050565b600067ffffffffffffffff821115620006685762000667620005c6565b5b620006738262000532565b9050602081019050919050565b82818337600083830152505050565b6000620006a6620006a0846200064a565b6200062b565b905082815260208101848484011115620006c557620006c4620005c1565b5b620006d284828562000680565b509392505050565b600082601f830112620006f257620006f1620005bc565b5b8135620007048482602086016200068f565b91505092915050565b600060208284031215620007265762000725620005b2565b5b600082013567ffffffffffffffff811115620007475762000746620005b7565b5b6200075584828501620006da565b91505092915050565b60008060408385031215620007785762000777620005b2565b5b600083013567ffffffffffffffff811115620007995762000798620005b7565b5b620007a785828601620006da565b925050602083013567ffffffffffffffff811115620007cb57620007ca620005b7565b5b620007d985828601620006da565b9150509250929050565b600073ffffffffffffffffffffffffffffffffffffffff82169050919050565b60006200081082620007e3565b9050919050565b620008228162000803565b82525050565b60006020820190506200083f600083018462000817565b92915050565b7f4e487b7100000000000000000000000000000000000000000000000000000000600052602260045260246000fd5b600060028204905060018216806200088d57607f821691505b60208210811415620008a457620008a362000845565b5b50919050565b60006040820190508181036000830152620008c6818562000543565b90508181036020830152620008dc818462000543565b9050939250505056fe60806040523480156200001157600080fd5b5060405162000aa338038062000aa38339818101604052810190620000379190620002be565b81600090805190602001906200004f92919062000071565b5080600190805190602001906200006892919062000071565b505050620003a8565b8280546200007f9062000372565b90600052602060002090601f016020900481019282620000a35760008555620000ef565b82601f10620000be57805160ff1916838001178555620000ef565b82800160010185558215620000ef579182015b82811115620000ee578251825591602001919060010190620000d1565b5b509050620000fe919062000102565b5090565b5b808211156200011d57600081600090555060010162000103565b5090565b6000604051905090565b600080fd5b600080fd5b600080fd5b600080fd5b6000601f19601f8301169050919050565b7f4e487b7100000000000000000000000000000000000000000000000000000000600052604160045260246000fd5b6200018a826200013f565b810181811067ffffffffffffffff82111715620001ac57620001ab62000150565b5b80604052505050565b6000620001c162000121565b9050620001cf82826200017f565b919050565b600067ffffffffffffffff821115620001f257620001f162000150565b5b620001fd826200013f565b9050602081019050919050565b60005b838110156200022a5780820151818401526020810190506200020d565b838111156200023a576000848401525b50505050565b6000620002576200025184620001d4565b620001b5565b9050828152602081018484840111156200027657620002756200013a565b5b620002838482856200020a565b509392505050565b600082601f830112620002a357620002a262000135565b5b8151620002b584826020860162000240565b91505092915050565b60008060408385031215620002d857620002d76200012b565b5b600083015167ffffffffffffffff811115620002f957620002f862000130565b5b62000307858286016200028b565b925050602083015167ffffffffffffffff8111156200032b576200032a62000130565b5b62000339858286016200028b565b9150509250929050565b7f4e487b7100000000000000000000000000000000000000000000000000000000600052602260045260246000fd5b600060028204905060018216806200038b57607f821691505b60208210811415620003a257620003a162000343565b5b50919050565b6106eb80620003b86000396000f3fe608060405234801561001057600080fd5b50600436106100575760003560e01c8063278de0001461005c578063475fc0f41461007a57806349e3915b146100aa5780638c22deaf146100c8578063a8cf7593146100e4575b600080fd5b610064610102565b6040516100719190610450565b60405180910390f35b610094600480360381019061008f91906105bb565b610190565b6040516100a19190610450565b60405180910390f35b6100b26101e9565b6040516100bf9190610450565b60405180910390f35b6100e260048036038101906100dd91906105bb565b610235565b005b6100ec610286565b6040516100f99190610450565b60405180910390f35b6000805461010f90610633565b80601f016020809104026020016040519081016040528092919081815260200182805461013b90610633565b80156101885780601f1061015d57610100808354040283529160200191610188565b820191906000526020600020905b81548152906001019060200180831161016b57829003601f168201915b505050505081565b60607f92c8ae1be97440da1f7f30fb5b39a98e3e352284ec632f81dbe4968ec35f5696826040516101c19190610450565b60405180910390a160405180606001604052806029815260200161068d602991399050919050565b60607f513f2213bca64463a207dd663bec29171d4ab06a1b71a1fd8c4bd2e66c6837d560405160405180910390a160405180606001604052806027815260200161066660279139905090565b806001908051906020019061024b929190610314565b507f275554b9e84105477212781091b7b08f2b148d56eee0f3c2f8ffd99730cb853c8160405161027b9190610450565b60405180910390a150565b6001805461029390610633565b80601f01602080910402602001604051908101604052809291908181526020018280546102bf90610633565b801561030c5780601f106102e15761010080835404028352916020019161030c565b820191906000526020600020905b8154815290600101906020018083116102ef57829003601f168201915b505050505081565b82805461032090610633565b90600052602060002090601f0160209004810192826103425760008555610389565b82601f1061035b57805160ff1916838001178555610389565b82800160010185558215610389579182015b8281111561038857825182559160200191906001019061036d565b5b509050610396919061039a565b5090565b5b808211156103b357600081600090555060010161039b565b5090565b600081519050919050565b600082825260208201905092915050565b60005b838110156103f15780820151818401526020810190506103d6565b83811115610400576000848401525b50505050565b6000601f19601f8301169050919050565b6000610422826103b7565b61042c81856103c2565b935061043c8185602086016103d3565b61044581610406565b840191505092915050565b6000602082019050818103600083015261046a8184610417565b905092915050565b6000604051905090565b600080fd5b600080fd5b600080fd5b600080fd5b7f4e487b7100000000000000000000000000000000000000000000000000000000600052604160045260246000fd5b6104c882610406565b810181811067ffffffffffffffff821117156104e7576104e6610490565b5b80604052505050565b60006104fa610472565b905061050682826104bf565b919050565b600067ffffffffffffffff82111561052657610525610490565b5b61052f82610406565b9050602081019050919050565b82818337600083830152505050565b600061055e6105598461050b565b6104f0565b90508281526020810184848401111561057a5761057961048b565b5b61058584828561053c565b509392505050565b600082601f8301126105a2576105a1610486565b5b81356105b284826020860161054b565b91505092915050565b6000602082840312156105d1576105d061047c565b5b600082013567ffffffffffffffff8111156105ef576105ee610481565b5b6105fb8482850161058d565b91505092915050565b7f4e487b7100000000000000000000000000000000000000000000000000000000600052602260045260246000fd5b6000600282049050600182168061064b57607f821691505b6020821081141561065f5761065e610604565b5b5091905056fe4661726d2064617461207265717565737465642120436865636b207468652049504e53206b65794465766963652064617461207265717565737465642120436865636b207468652049504e53206b6579a264697066735822122067f3390fade94f4c10201c51e2dd20cf2fe1f8567f071acf4460e100afeb61cc64736f6c63430008090033a26469706673582212200bfb46bfcf5971fbddebf60bbd07514e4b446f97598c78b14055b934ac887af164736f6c63430008090033","opcodes":"PUSH1 0x80 PUSH1 0x40 MSTORE CALLVALUE DUP1 ISZERO PUSH2 0x10 JUMPI PUSH1 0x0 DUP1 REVERT JUMPDEST POP PUSH2 0x13BE DUP1 PUSH2 0x20 PUSH1 0x0 CODECOPY PUSH1 0x0 RETURN INVALID PUSH1 0x80 PUSH1 0x40 MSTORE CALLVALUE DUP1 ISZERO PUSH3 0x11 JUMPI PUSH1 0x0 DUP1 REVERT JUMPDEST POP PUSH1 0x4 CALLDATASIZE LT PUSH3 0x88 JUMPI PUSH1 0x0 CALLDATALOAD PUSH1 0xE0 SHR DUP1 PUSH4 0x8D18DDED GT PUSH3 0x63 JUMPI DUP1 PUSH4 0x8D18DDED EQ PUSH3 0xEF JUMPI DUP1 PUSH4 0xB71CC078 EQ PUSH3 0x111 JUMPI DUP1 PUSH4 0xE20B937F EQ PUSH3 0x131 JUMPI DUP1 PUSH4 0xE6AAF9CC EQ PUSH3 0x153 JUMPI PUSH3 0x88 JUMP JUMPDEST DUP1 PUSH4 0xF5B7A92 EQ PUSH3 0x8D JUMPI DUP1 PUSH4 0xFBA35BE EQ PUSH3 0xAF JUMPI DUP1 PUSH4 0x4E728665 EQ PUSH3 0xCF JUMPI JUMPDEST PUSH1 0x0 DUP1 REVERT JUMPDEST PUSH3 0x97 PUSH3 0x189 JUMP JUMPDEST PUSH1 0x40 MLOAD PUSH3 0xA6 SWAP2 SWAP1 PUSH3 0x584 JUMP JUMPDEST PUSH1 0x40 MLOAD DUP1 SWAP2 SUB SWAP1 RETURN JUMPDEST PUSH3 0xCD PUSH1 0x4 DUP1 CALLDATASIZE SUB DUP2 ADD SWAP1 PUSH3 0xC7 SWAP2 SWAP1 PUSH3 0x70D JUMP JUMPDEST PUSH3 0x21F JUMP JUMPDEST STOP JUMPDEST PUSH3 0xED PUSH1 0x4 DUP1 CALLDATASIZE SUB DUP2 ADD SWAP1 PUSH3 0xE7 SWAP2 SWAP1 PUSH3 0x70D JUMP JUMPDEST PUSH3 0x23B JUMP JUMPDEST STOP JUMPDEST PUSH3 0xF9 PUSH3 0x257 JUMP JUMPDEST PUSH1 0x40 MLOAD PUSH3 0x108 SWAP2 SWAP1 PUSH3 0x584 JUMP JUMPDEST PUSH1 0x40 MLOAD DUP1 SWAP2 SUB SWAP1 RETURN JUMPDEST PUSH3 0x12F PUSH1 0x4 DUP1 CALLDATASIZE SUB DUP2 ADD SWAP1 PUSH3 0x129 SWAP2 SWAP1 PUSH3 0x70D JUMP JUMPDEST PUSH3 0x2ED JUMP JUMPDEST STOP JUMPDEST PUSH3 0x13B PUSH3 0x309 JUMP JUMPDEST PUSH1 0x40 MLOAD PUSH3 0x14A SWAP2 SWAP1 PUSH3 0x584 JUMP JUMPDEST PUSH1 0x40 MLOAD DUP1 SWAP2 SUB SWAP1 RETURN JUMPDEST PUSH3 0x171 PUSH1 0x4 DUP1 CALLDATASIZE SUB DUP2 ADD SWAP1 PUSH3 0x16B SWAP2 SWAP1 PUSH3 0x75E JUMP JUMPDEST PUSH3 0x39F JUMP JUMPDEST PUSH1 0x40 MLOAD PUSH3 0x180 SWAP2 SWAP1 PUSH3 0x828 JUMP JUMPDEST PUSH1 0x40 MLOAD DUP1 SWAP2 SUB SWAP1 RETURN JUMPDEST PUSH1 0x1 DUP1 SLOAD PUSH3 0x198 SWAP1 PUSH3 0x874 JUMP JUMPDEST DUP1 PUSH1 0x1F ADD PUSH1 0x20 DUP1 SWAP2 DIV MUL PUSH1 0x20 ADD PUSH1 0x40 MLOAD SWAP1 DUP2 ADD PUSH1 0x40 MSTORE DUP1 SWAP3 SWAP2 SWAP1 DUP2 DUP2 MSTORE PUSH1 0x20 ADD DUP3 DUP1 SLOAD PUSH3 0x1C6 SWAP1 PUSH3 0x874 JUMP JUMPDEST DUP1 ISZERO PUSH3 0x217 JUMPI DUP1 PUSH1 0x1F LT PUSH3 0x1EB JUMPI PUSH2 0x100 DUP1 DUP4 SLOAD DIV MUL DUP4 MSTORE SWAP2 PUSH1 0x20 ADD SWAP2 PUSH3 0x217 JUMP JUMPDEST DUP3 ADD SWAP2 SWAP1 PUSH1 0x0 MSTORE PUSH1 0x20 PUSH1 0x0 KECCAK256 SWAP1 JUMPDEST DUP2 SLOAD DUP2 MSTORE SWAP1 PUSH1 0x1 ADD SWAP1 PUSH1 0x20 ADD DUP1 DUP4 GT PUSH3 0x1F9 JUMPI DUP3 SWAP1 SUB PUSH1 0x1F AND DUP3 ADD SWAP2 JUMPDEST POP POP POP POP POP DUP2 JUMP JUMPDEST DUP1 PUSH1 0x2 SWAP1 DUP1 MLOAD SWAP1 PUSH1 0x20 ADD SWAP1 PUSH3 0x237 SWAP3 SWAP2 SWAP1 PUSH3 0x422 JUMP JUMPDEST POP POP JUMP JUMPDEST DUP1 PUSH1 0x0 SWAP1 DUP1 MLOAD SWAP1 PUSH1 0x20 ADD SWAP1 PUSH3 0x253 SWAP3 SWAP2 SWAP1 PUSH3 0x422 JUMP JUMPDEST POP POP JUMP JUMPDEST PUSH1 0x2 DUP1 SLOAD PUSH3 0x266 SWAP1 PUSH3 0x874 JUMP JUMPDEST DUP1 PUSH1 0x1F ADD PUSH1 0x20 DUP1 SWAP2 DIV MUL PUSH1 0x20 ADD PUSH1 0x40 MLOAD SWAP1 DUP2 ADD PUSH1 0x40 MSTORE DUP1 SWAP3 SWAP2 SWAP1 DUP2 DUP2 MSTORE PUSH1 0x20 ADD DUP3 DUP1 SLOAD PUSH3 0x294 SWAP1 PUSH3 0x874 JUMP JUMPDEST DUP1 ISZERO PUSH3 0x2E5 JUMPI DUP1 PUSH1 0x1F LT PUSH3 0x2B9 JUMPI PUSH2 0x100 DUP1 DUP4 SLOAD DIV MUL DUP4 MSTORE SWAP2 PUSH1 0x20 ADD SWAP2 PUSH3 0x2E5 JUMP JUMPDEST DUP3 ADD SWAP2 SWAP1 PUSH1 0x0 MSTORE PUSH1 0x20 PUSH1 0x0 KECCAK256 SWAP1 JUMPDEST DUP2 SLOAD DUP2 MSTORE SWAP1 PUSH1 0x1 ADD SWAP1 PUSH1 0x20 ADD DUP1 DUP4 GT PUSH3 0x2C7 JUMPI DUP3 SWAP1 SUB PUSH1 0x1F AND DUP3 ADD SWAP2 JUMPDEST POP POP POP POP POP DUP2 JUMP JUMPDEST DUP1 PUSH1 0x1 SWAP1 DUP1 MLOAD SWAP1 PUSH1 0x20 ADD SWAP1 PUSH3 0x305 SWAP3 SWAP2 SWAP1 PUSH3 0x422 JUMP JUMPDEST POP POP JUMP JUMPDEST PUSH1 0x0 DUP1 SLOAD PUSH3 0x318 SWAP1 PUSH3 0x874 JUMP JUMPDEST DUP1 PUSH1 0x1F ADD PUSH1 0x20 DUP1 SWAP2 DIV MUL PUSH1 0x20 ADD PUSH1 0x40 MLOAD SWAP1 DUP2 ADD PUSH1 0x40 MSTORE DUP1 SWAP3 SWAP2 SWAP1 DUP2 DUP2 MSTORE PUSH1 0x20 ADD DUP3 DUP1 SLOAD PUSH3 0x346 SWAP1 PUSH3 0x874 JUMP JUMPDEST DUP1 ISZERO PUSH3 0x397 JUMPI DUP1 PUSH1 0x1F LT PUSH3 0x36B JUMPI PUSH2 0x100 DUP1 DUP4 SLOAD DIV MUL DUP4 MSTORE SWAP2 PUSH1 0x20 ADD SWAP2 PUSH3 0x397 JUMP JUMPDEST DUP3 ADD SWAP2 SWAP1 PUSH1 0x0 MSTORE PUSH1 0x20 PUSH1 0x0 KECCAK256 SWAP1 JUMPDEST DUP2 SLOAD DUP2 MSTORE SWAP1 PUSH1 0x1 ADD SWAP1 PUSH1 0x20 ADD DUP1 DUP4 GT PUSH3 0x379 JUMPI DUP3 SWAP1 SUB PUSH1 0x1F AND DUP3 ADD SWAP2 JUMPDEST POP POP POP POP POP DUP2 JUMP JUMPDEST PUSH1 0x0 DUP1 DUP4 DUP4 PUSH1 0x40 MLOAD PUSH3 0x3B2 SWAP1 PUSH3 0x4B3 JUMP JUMPDEST PUSH3 0x3BF SWAP3 SWAP2 SWAP1 PUSH3 0x8AA JUMP JUMPDEST PUSH1 0x40 MLOAD DUP1 SWAP2 SUB SWAP1 PUSH1 0x0 CREATE DUP1 ISZERO DUP1 ISZERO PUSH3 0x3DC JUMPI RETURNDATASIZE PUSH1 0x0 DUP1 RETURNDATACOPY RETURNDATASIZE PUSH1 0x0 REVERT JUMPDEST POP SWAP1 POP PUSH32 0x46963F16723A084F2199EB74021BD97647AA6C8960612A9A031CE509D40D4CA7 DUP2 PUSH1 0x40 MLOAD PUSH3 0x410 SWAP2 SWAP1 PUSH3 0x828 JUMP JUMPDEST PUSH1 0x40 MLOAD DUP1 SWAP2 SUB SWAP1 LOG1 DUP1 SWAP2 POP POP SWAP3 SWAP2 POP POP JUMP JUMPDEST DUP3 DUP1 SLOAD PUSH3 0x430 SWAP1 PUSH3 0x874 JUMP JUMPDEST SWAP1 PUSH1 0x0 MSTORE PUSH1 0x20 PUSH1 0x0 KECCAK256 SWAP1 PUSH1 0x1F ADD PUSH1 0x20 SWAP1 DIV DUP2 ADD SWAP3 DUP3 PUSH3 0x454 JUMPI PUSH1 0x0 DUP6 SSTORE PUSH3 0x4A0 JUMP JUMPDEST DUP3 PUSH1 0x1F LT PUSH3 0x46F JUMPI DUP1 MLOAD PUSH1 0xFF NOT AND DUP4 DUP1 ADD OR DUP6 SSTORE PUSH3 0x4A0 JUMP JUMPDEST DUP3 DUP1 ADD PUSH1 0x1 ADD DUP6 SSTORE DUP3 ISZERO PUSH3 0x4A0 JUMPI SWAP2 DUP3 ADD JUMPDEST DUP3 DUP2 GT ISZERO PUSH3 0x49F JUMPI DUP3 MLOAD DUP3 SSTORE SWAP2 PUSH1 0x20 ADD SWAP2 SWAP1 PUSH1 0x1 ADD SWAP1 PUSH3 0x482 JUMP JUMPDEST JUMPDEST POP SWAP1 POP PUSH3 0x4AF SWAP2 SWAP1 PUSH3 0x4C1 JUMP JUMPDEST POP SWAP1 JUMP JUMPDEST PUSH2 0xAA3 DUP1 PUSH3 0x8E6 DUP4 CODECOPY ADD SWAP1 JUMP JUMPDEST JUMPDEST DUP1 DUP3 GT ISZERO PUSH3 0x4DC JUMPI PUSH1 0x0 DUP2 PUSH1 0x0 SWAP1 SSTORE POP PUSH1 0x1 ADD PUSH3 0x4C2 JUMP JUMPDEST POP SWAP1 JUMP JUMPDEST PUSH1 0x0 DUP2 MLOAD SWAP1 POP SWAP2 SWAP1 POP JUMP JUMPDEST PUSH1 0x0 DUP3 DUP3 MSTORE PUSH1 0x20 DUP3 ADD SWAP1 POP SWAP3 SWAP2 POP POP JUMP JUMPDEST PUSH1 0x0 JUMPDEST DUP4 DUP2 LT ISZERO PUSH3 0x51C JUMPI DUP1 DUP3 ADD MLOAD DUP2 DUP5 ADD MSTORE PUSH1 0x20 DUP2 ADD SWAP1 POP PUSH3 0x4FF JUMP JUMPDEST DUP4 DUP2 GT ISZERO PUSH3 0x52C JUMPI PUSH1 0x0 DUP5 DUP5 ADD MSTORE JUMPDEST POP POP POP POP JUMP JUMPDEST PUSH1 0x0 PUSH1 0x1F NOT PUSH1 0x1F DUP4 ADD AND SWAP1 POP SWAP2 SWAP1 POP JUMP JUMPDEST PUSH1 0x0 PUSH3 0x550 DUP3 PUSH3 0x4E0 JUMP JUMPDEST PUSH3 0x55C DUP2 DUP6 PUSH3 0x4EB JUMP JUMPDEST SWAP4 POP PUSH3 0x56E DUP2 DUP6 PUSH1 0x20 DUP7 ADD PUSH3 0x4FC JUMP JUMPDEST PUSH3 0x579 DUP2 PUSH3 0x532 JUMP JUMPDEST DUP5 ADD SWAP2 POP POP SWAP3 SWAP2 POP POP JUMP JUMPDEST PUSH1 0x0 PUSH1 0x20 DUP3 ADD SWAP1 POP DUP2 DUP2 SUB PUSH1 0x0 DUP4 ADD MSTORE PUSH3 0x5A0 DUP2 DUP5 PUSH3 0x543 JUMP JUMPDEST SWAP1 POP SWAP3 SWAP2 POP POP JUMP JUMPDEST PUSH1 0x0 PUSH1 0x40 MLOAD SWAP1 POP SWAP1 JUMP JUMPDEST PUSH1 0x0 DUP1 REVERT JUMPDEST PUSH1 0x0 DUP1 REVERT JUMPDEST PUSH1 0x0 DUP1 REVERT JUMPDEST PUSH1 0x0 DUP1 REVERT JUMPDEST PUSH32 0x4E487B7100000000000000000000000000000000000000000000000000000000 PUSH1 0x0 MSTORE PUSH1 0x41 PUSH1 0x4 MSTORE PUSH1 0x24 PUSH1 0x0 REVERT JUMPDEST PUSH3 0x600 DUP3 PUSH3 0x532 JUMP JUMPDEST DUP2 ADD DUP2 DUP2 LT PUSH8 0xFFFFFFFFFFFFFFFF DUP3 GT OR ISZERO PUSH3 0x622 JUMPI PUSH3 0x621 PUSH3 0x5C6 JUMP JUMPDEST JUMPDEST DUP1 PUSH1 0x40 MSTORE POP POP POP JUMP JUMPDEST PUSH1 0x0 PUSH3 0x637 PUSH3 0x5A8 JUMP JUMPDEST SWAP1 POP PUSH3 0x645 DUP3 DUP3 PUSH3 0x5F5 JUMP JUMPDEST SWAP2 SWAP1 POP JUMP JUMPDEST PUSH1 0x0 PUSH8 0xFFFFFFFFFFFFFFFF DUP3 GT ISZERO PUSH3 0x668 JUMPI PUSH3 0x667 PUSH3 0x5C6 JUMP JUMPDEST JUMPDEST PUSH3 0x673 DUP3 PUSH3 0x532 JUMP JUMPDEST SWAP1 POP PUSH1 0x20 DUP2 ADD SWAP1 POP SWAP2 SWAP1 POP JUMP JUMPDEST DUP3 DUP2 DUP4 CALLDATACOPY PUSH1 0x0 DUP4 DUP4 ADD MSTORE POP POP POP JUMP JUMPDEST PUSH1 0x0 PUSH3 0x6A6 PUSH3 0x6A0 DUP5 PUSH3 0x64A JUMP JUMPDEST PUSH3 0x62B JUMP JUMPDEST SWAP1 POP DUP3 DUP2 MSTORE PUSH1 0x20 DUP2 ADD DUP5 DUP5 DUP5 ADD GT ISZERO PUSH3 0x6C5 JUMPI PUSH3 0x6C4 PUSH3 0x5C1 JUMP JUMPDEST JUMPDEST PUSH3 0x6D2 DUP5 DUP3 DUP6 PUSH3 0x680 JUMP JUMPDEST POP SWAP4 SWAP3 POP POP POP JUMP JUMPDEST PUSH1 0x0 DUP3 PUSH1 0x1F DUP4 ADD SLT PUSH3 0x6F2 JUMPI PUSH3 0x6F1 PUSH3 0x5BC JUMP JUMPDEST JUMPDEST DUP2 CALLDATALOAD PUSH3 0x704 DUP5 DUP3 PUSH1 0x20 DUP7 ADD PUSH3 0x68F JUMP JUMPDEST SWAP2 POP POP SWAP3 SWAP2 POP POP JUMP JUMPDEST PUSH1 0x0 PUSH1 0x20 DUP3 DUP5 SUB SLT ISZERO PUSH3 0x726 JUMPI PUSH3 0x725 PUSH3 0x5B2 JUMP JUMPDEST JUMPDEST PUSH1 0x0 DUP3 ADD CALLDATALOAD PUSH8 0xFFFFFFFFFFFFFFFF DUP2 GT ISZERO PUSH3 0x747 JUMPI PUSH3 0x746 PUSH3 0x5B7 JUMP JUMPDEST JUMPDEST PUSH3 0x755 DUP5 DUP3 DUP6 ADD PUSH3 0x6DA JUMP JUMPDEST SWAP2 POP POP SWAP3 SWAP2 POP POP JUMP JUMPDEST PUSH1 0x0 DUP1 PUSH1 0x40 DUP4 DUP6 SUB SLT ISZERO PUSH3 0x778 JUMPI PUSH3 0x777 PUSH3 0x5B2 JUMP JUMPDEST JUMPDEST PUSH1 0x0 DUP4 ADD CALLDATALOAD PUSH8 0xFFFFFFFFFFFFFFFF DUP2 GT ISZERO PUSH3 0x799 JUMPI PUSH3 0x798 PUSH3 0x5B7 JUMP JUMPDEST JUMPDEST PUSH3 0x7A7 DUP6 DUP3 DUP7 ADD PUSH3 0x6DA JUMP JUMPDEST SWAP3 POP POP PUSH1 0x20 DUP4 ADD CALLDATALOAD PUSH8 0xFFFFFFFFFFFFFFFF DUP2 GT ISZERO PUSH3 0x7CB JUMPI PUSH3 0x7CA PUSH3 0x5B7 JUMP JUMPDEST JUMPDEST PUSH3 0x7D9 DUP6 DUP3 DUP7 ADD PUSH3 0x6DA JUMP JUMPDEST SWAP2 POP POP SWAP3 POP SWAP3 SWAP1 POP JUMP JUMPDEST PUSH1 0x0 PUSH20 0xFFFFFFFFFFFFFFFFFFFFFFFFFFFFFFFFFFFFFFFF DUP3 AND SWAP1 POP SWAP2 SWAP1 POP JUMP JUMPDEST PUSH1 0x0 PUSH3 0x810 DUP3 PUSH3 0x7E3 JUMP JUMPDEST SWAP1 POP SWAP2 SWAP1 POP JUMP JUMPDEST PUSH3 0x822 DUP2 PUSH3 0x803 JUMP JUMPDEST DUP3 MSTORE POP POP JUMP JUMPDEST PUSH1 0x0 PUSH1 0x20 DUP3 ADD SWAP1 POP PUSH3 0x83F PUSH1 0x0 DUP4 ADD DUP5 PUSH3 0x817 JUMP JUMPDEST SWAP3 SWAP2 POP POP JUMP JUMPDEST PUSH32 0x4E487B7100000000000000000000000000000000000000000000000000000000 PUSH1 0x0 MSTORE PUSH1 0x22 PUSH1 0x4 MSTORE PUSH1 0x24 PUSH1 0x0 REVERT JUMPDEST PUSH1 0x0 PUSH1 0x2 DUP3 DIV SWAP1 POP PUSH1 0x1 DUP3 AND DUP1 PUSH3 0x88D JUMPI PUSH1 0x7F DUP3 AND SWAP2 POP JUMPDEST PUSH1 0x20 DUP3 LT DUP2 EQ ISZERO PUSH3 0x8A4 JUMPI PUSH3 0x8A3 PUSH3 0x845 JUMP JUMPDEST JUMPDEST POP SWAP2 SWAP1 POP JUMP JUMPDEST PUSH1 0x0 PUSH1 0x40 DUP3 ADD SWAP1 POP DUP2 DUP2 SUB PUSH1 0x0 DUP4 ADD MSTORE PUSH3 0x8C6 DUP2 DUP6 PUSH3 0x543 JUMP JUMPDEST SWAP1 POP DUP2 DUP2 SUB PUSH1 0x20 DUP4 ADD MSTORE PUSH3 0x8DC DUP2 DUP5 PUSH3 0x543 JUMP JUMPDEST SWAP1 POP SWAP4 SWAP3 POP POP POP JUMP INVALID PUSH1 0x80 PUSH1 0x40 MSTORE CALLVALUE DUP1 ISZERO PUSH3 0x11 JUMPI PUSH1 0x0 DUP1 REVERT JUMPDEST POP PUSH1 0x40 MLOAD PUSH3 0xAA3 CODESIZE SUB DUP1 PUSH3 0xAA3 DUP4 CODECOPY DUP2 DUP2 ADD PUSH1 0x40 MSTORE DUP2 ADD SWAP1 PUSH3 0x37 SWAP2 SWAP1 PUSH3 0x2BE JUMP JUMPDEST DUP2 PUSH1 0x0 SWAP1 DUP1 MLOAD SWAP1 PUSH1 0x20 ADD SWAP1 PUSH3 0x4F SWAP3 SWAP2 SWAP1 PUSH3 0x71 JUMP JUMPDEST POP DUP1 PUSH1 0x1 SWAP1 DUP1 MLOAD SWAP1 PUSH1 0x20 ADD SWAP1 PUSH3 0x68 SWAP3 SWAP2 SWAP1 PUSH3 0x71 JUMP JUMPDEST POP POP POP PUSH3 0x3A8 JUMP JUMPDEST DUP3 DUP1 SLOAD PUSH3 0x7F SWAP1 PUSH3 0x372 JUMP JUMPDEST SWAP1 PUSH1 0x0 MSTORE PUSH1 0x20 PUSH1 0x0 KECCAK256 SWAP1 PUSH1 0x1F ADD PUSH1 0x20 SWAP1 DIV DUP2 ADD SWAP3 DUP3 PUSH3 0xA3 JUMPI PUSH1 0x0 DUP6 SSTORE PUSH3 0xEF JUMP JUMPDEST DUP3 PUSH1 0x1F LT PUSH3 0xBE JUMPI DUP1 MLOAD PUSH1 0xFF NOT AND DUP4 DUP1 ADD OR DUP6 SSTORE PUSH3 0xEF JUMP JUMPDEST DUP3 DUP1 ADD PUSH1 0x1 ADD DUP6 SSTORE DUP3 ISZERO PUSH3 0xEF JUMPI SWAP2 DUP3 ADD JUMPDEST DUP3 DUP2 GT ISZERO PUSH3 0xEE JUMPI DUP3 MLOAD DUP3 SSTORE SWAP2 PUSH1 0x20 ADD SWAP2 SWAP1 PUSH1 0x1 ADD SWAP1 PUSH3 0xD1 JUMP JUMPDEST JUMPDEST POP SWAP1 POP PUSH3 0xFE SWAP2 SWAP1 PUSH3 0x102 JUMP JUMPDEST POP SWAP1 JUMP JUMPDEST JUMPDEST DUP1 DUP3 GT ISZERO PUSH3 0x11D JUMPI PUSH1 0x0 DUP2 PUSH1 0x0 SWAP1 SSTORE POP PUSH1 0x1 ADD PUSH3 0x103 JUMP JUMPDEST POP SWAP1 JUMP JUMPDEST PUSH1 0x0 PUSH1 0x40 MLOAD SWAP1 POP SWAP1 JUMP JUMPDEST PUSH1 0x0 DUP1 REVERT JUMPDEST PUSH1 0x0 DUP1 REVERT JUMPDEST PUSH1 0x0 DUP1 REVERT JUMPDEST PUSH1 0x0 DUP1 REVERT JUMPDEST PUSH1 0x0 PUSH1 0x1F NOT PUSH1 0x1F DUP4 ADD AND SWAP1 POP SWAP2 SWAP1 POP JUMP JUMPDEST PUSH32 0x4E487B7100000000000000000000000000000000000000000000000000000000 PUSH1 0x0 MSTORE PUSH1 0x41 PUSH1 0x4 MSTORE PUSH1 0x24 PUSH1 0x0 REVERT JUMPDEST PUSH3 0x18A DUP3 PUSH3 0x13F JUMP JUMPDEST DUP2 ADD DUP2 DUP2 LT PUSH8 0xFFFFFFFFFFFFFFFF DUP3 GT OR ISZERO PUSH3 0x1AC JUMPI PUSH3 0x1AB PUSH3 0x150 JUMP JUMPDEST JUMPDEST DUP1 PUSH1 0x40 MSTORE POP POP POP JUMP JUMPDEST PUSH1 0x0 PUSH3 0x1C1 PUSH3 0x121 JUMP JUMPDEST SWAP1 POP PUSH3 0x1CF DUP3 DUP3 PUSH3 0x17F JUMP JUMPDEST SWAP2 SWAP1 POP JUMP JUMPDEST PUSH1 0x0 PUSH8 0xFFFFFFFFFFFFFFFF DUP3 GT ISZERO PUSH3 0x1F2 JUMPI PUSH3 0x1F1 PUSH3 0x150 JUMP JUMPDEST JUMPDEST PUSH3 0x1FD DUP3 PUSH3 0x13F JUMP JUMPDEST SWAP1 POP PUSH1 0x20 DUP2 ADD SWAP1 POP SWAP2 SWAP1 POP JUMP JUMPDEST PUSH1 0x0 JUMPDEST DUP4 DUP2 LT ISZERO PUSH3 0x22A JUMPI DUP1 DUP3 ADD MLOAD DUP2 DUP5 ADD MSTORE PUSH1 0x20 DUP2 ADD SWAP1 POP PUSH3 0x20D JUMP JUMPDEST DUP4 DUP2 GT ISZERO PUSH3 0x23A JUMPI PUSH1 0x0 DUP5 DUP5 ADD MSTORE JUMPDEST POP POP POP POP JUMP JUMPDEST PUSH1 0x0 PUSH3 0x257 PUSH3 0x251 DUP5 PUSH3 0x1D4 JUMP JUMPDEST PUSH3 0x1B5 JUMP JUMPDEST SWAP1 POP DUP3 DUP2 MSTORE PUSH1 0x20 DUP2 ADD DUP5 DUP5 DUP5 ADD GT ISZERO PUSH3 0x276 JUMPI PUSH3 0x275 PUSH3 0x13A JUMP JUMPDEST JUMPDEST PUSH3 0x283 DUP5 DUP3 DUP6 PUSH3 0x20A JUMP JUMPDEST POP SWAP4 SWAP3 POP POP POP JUMP JUMPDEST PUSH1 0x0 DUP3 PUSH1 0x1F DUP4 ADD SLT PUSH3 0x2A3 JUMPI PUSH3 0x2A2 PUSH3 0x135 JUMP JUMPDEST JUMPDEST DUP2 MLOAD PUSH3 0x2B5 DUP5 DUP3 PUSH1 0x20 DUP7 ADD PUSH3 0x240 JUMP JUMPDEST SWAP2 POP POP SWAP3 SWAP2 POP POP JUMP JUMPDEST PUSH1 0x0 DUP1 PUSH1 0x40 DUP4 DUP6 SUB SLT ISZERO PUSH3 0x2D8 JUMPI PUSH3 0x2D7 PUSH3 0x12B JUMP JUMPDEST JUMPDEST PUSH1 0x0 DUP4 ADD MLOAD PUSH8 0xFFFFFFFFFFFFFFFF DUP2 GT ISZERO PUSH3 0x2F9 JUMPI PUSH3 0x2F8 PUSH3 0x130 JUMP JUMPDEST JUMPDEST PUSH3 0x307 DUP6 DUP3 DUP7 ADD PUSH3 0x28B JUMP JUMPDEST SWAP3 POP POP PUSH1 0x20 DUP4 ADD MLOAD PUSH8 0xFFFFFFFFFFFFFFFF DUP2 GT ISZERO PUSH3 0x32B JUMPI PUSH3 0x32A PUSH3 0x130 JUMP JUMPDEST JUMPDEST PUSH3 0x339 DUP6 DUP3 DUP7 ADD PUSH3 0x28B JUMP JUMPDEST SWAP2 POP POP SWAP3 POP SWAP3 SWAP1 POP JUMP JUMPDEST PUSH32 0x4E487B7100000000000000000000000000000000000000000000000000000000 PUSH1 0x0 MSTORE PUSH1 0x22 PUSH1 0x4 MSTORE PUSH1 0x24 PUSH1 0x0 REVERT JUMPDEST PUSH1 0x0 PUSH1 0x2 DUP3 DIV SWAP1 POP PUSH1 0x1 DUP3 AND DUP1 PUSH3 0x38B JUMPI PUSH1 0x7F DUP3 AND SWAP2 POP JUMPDEST PUSH1 0x20 DUP3 LT DUP2 EQ ISZERO PUSH3 0x3A2 JUMPI PUSH3 0x3A1 PUSH3 0x343 JUMP JUMPDEST JUMPDEST POP SWAP2 SWAP1 POP JUMP JUMPDEST PUSH2 0x6EB DUP1 PUSH3 0x3B8 PUSH1 0x0 CODECOPY PUSH1 0x0 RETURN INVALID PUSH1 0x80 PUSH1 0x40 MSTORE CALLVALUE DUP1 ISZERO PUSH2 0x10 JUMPI PUSH1 0x0 DUP1 REVERT JUMPDEST POP PUSH1 0x4 CALLDATASIZE LT PUSH2 0x57 JUMPI PUSH1 0x0 CALLDATALOAD PUSH1 0xE0 SHR DUP1 PUSH4 0x278DE000 EQ PUSH2 0x5C JUMPI DUP1 PUSH4 0x475FC0F4 EQ PUSH2 0x7A JUMPI DUP1 PUSH4 0x49E3915B EQ PUSH2 0xAA JUMPI DUP1 PUSH4 0x8C22DEAF EQ PUSH2 0xC8 JUMPI DUP1 PUSH4 0xA8CF7593 EQ PUSH2 0xE4 JUMPI JUMPDEST PUSH1 0x0 DUP1 REVERT JUMPDEST PUSH2 0x64 PUSH2 0x102 JUMP JUMPDEST PUSH1 0x40 MLOAD PUSH2 0x71 SWAP2 SWAP1 PUSH2 0x450 JUMP JUMPDEST PUSH1 0x40 MLOAD DUP1 SWAP2 SUB SWAP1 RETURN JUMPDEST PUSH2 0x94 PUSH1 0x4 DUP1 CALLDATASIZE SUB DUP2 ADD SWAP1 PUSH2 0x8F SWAP2 SWAP1 PUSH2 0x5BB JUMP JUMPDEST PUSH2 0x190 JUMP JUMPDEST PUSH1 0x40 MLOAD PUSH2 0xA1 SWAP2 SWAP1 PUSH2 0x450 JUMP JUMPDEST PUSH1 0x40 MLOAD DUP1 SWAP2 SUB SWAP1 RETURN JUMPDEST PUSH2 0xB2 PUSH2 0x1E9 JUMP JUMPDEST PUSH1 0x40 MLOAD PUSH2 0xBF SWAP2 SWAP1 PUSH2 0x450 JUMP JUMPDEST PUSH1 0x40 MLOAD DUP1 SWAP2 SUB SWAP1 RETURN JUMPDEST PUSH2 0xE2 PUSH1 0x4 DUP1 CALLDATASIZE SUB DUP2 ADD SWAP1 PUSH2 0xDD SWAP2 SWAP1 PUSH2 0x5BB JUMP JUMPDEST PUSH2 0x235 JUMP JUMPDEST STOP JUMPDEST PUSH2 0xEC PUSH2 0x286 JUMP JUMPDEST PUSH1 0x40 MLOAD PUSH2 0xF9 SWAP2 SWAP1 PUSH2 0x450 JUMP JUMPDEST PUSH1 0x40 MLOAD DUP1 SWAP2 SUB SWAP1 RETURN JUMPDEST PUSH1 0x0 DUP1 SLOAD PUSH2 0x10F SWAP1 PUSH2 0x633 JUMP JUMPDEST DUP1 PUSH1 0x1F ADD PUSH1 0x20 DUP1 SWAP2 DIV MUL PUSH1 0x20 ADD PUSH1 0x40 MLOAD SWAP1 DUP2 ADD PUSH1 0x40 MSTORE DUP1 SWAP3 SWAP2 SWAP1 DUP2 DUP2 MSTORE PUSH1 0x20 ADD DUP3 DUP1 SLOAD PUSH2 0x13B SWAP1 PUSH2 0x633 JUMP JUMPDEST DUP1 ISZERO PUSH2 0x188 JUMPI DUP1 PUSH1 0x1F LT PUSH2 0x15D JUMPI PUSH2 0x100 DUP1 DUP4 SLOAD DIV MUL DUP4 MSTORE SWAP2 PUSH1 0x20 ADD SWAP2 PUSH2 0x188 JUMP JUMPDEST DUP3 ADD SWAP2 SWAP1 PUSH1 0x0 MSTORE PUSH1 0x20 PUSH1 0x0 KECCAK256 SWAP1 JUMPDEST DUP2 SLOAD DUP2 MSTORE SWAP1 PUSH1 0x1 ADD SWAP1 PUSH1 0x20 ADD DUP1 DUP4 GT PUSH2 0x16B JUMPI DUP3 SWAP1 SUB PUSH1 0x1F AND DUP3 ADD SWAP2 JUMPDEST POP POP POP POP POP DUP2 JUMP JUMPDEST PUSH1 0x60 PUSH32 0x92C8AE1BE97440DA1F7F30FB5B39A98E3E352284EC632F81DBE4968EC35F5696 DUP3 PUSH1 0x40 MLOAD PUSH2 0x1C1 SWAP2 SWAP1 PUSH2 0x450 JUMP JUMPDEST PUSH1 0x40 MLOAD DUP1 SWAP2 SUB SWAP1 LOG1 PUSH1 0x40 MLOAD DUP1 PUSH1 0x60 ADD PUSH1 0x40 MSTORE DUP1 PUSH1 0x29 DUP2 MSTORE PUSH1 0x20 ADD PUSH2 0x68D PUSH1 0x29 SWAP2 CODECOPY SWAP1 POP SWAP2 SWAP1 POP JUMP JUMPDEST PUSH1 0x60 PUSH32 0x513F2213BCA64463A207DD663BEC29171D4AB06A1B71A1FD8C4BD2E66C6837D5 PUSH1 0x40 MLOAD PUSH1 0x40 MLOAD DUP1 SWAP2 SUB SWAP1 LOG1 PUSH1 0x40 MLOAD DUP1 PUSH1 0x60 ADD PUSH1 0x40 MSTORE DUP1 PUSH1 0x27 DUP2 MSTORE PUSH1 0x20 ADD PUSH2 0x666 PUSH1 0x27 SWAP2 CODECOPY SWAP1 POP SWAP1 JUMP JUMPDEST DUP1 PUSH1 0x1 SWAP1 DUP1 MLOAD SWAP1 PUSH1 0x20 ADD SWAP1 PUSH2 0x24B SWAP3 SWAP2 SWAP1 PUSH2 0x314 JUMP JUMPDEST POP PUSH32 0x275554B9E84105477212781091B7B08F2B148D56EEE0F3C2F8FFD99730CB853C DUP2 PUSH1 0x40 MLOAD PUSH2 0x27B SWAP2 SWAP1 PUSH2 0x450 JUMP JUMPDEST PUSH1 0x40 MLOAD DUP1 SWAP2 SUB SWAP1 LOG1 POP JUMP JUMPDEST PUSH1 0x1 DUP1 SLOAD PUSH2 0x293 SWAP1 PUSH2 0x633 JUMP JUMPDEST DUP1 PUSH1 0x1F ADD PUSH1 0x20 DUP1 SWAP2 DIV MUL PUSH1 0x20 ADD PUSH1 0x40 MLOAD SWAP1 DUP2 ADD PUSH1 0x40 MSTORE DUP1 SWAP3 SWAP2 SWAP1 DUP2 DUP2 MSTORE PUSH1 0x20 ADD DUP3 DUP1 SLOAD PUSH2 0x2BF SWAP1 PUSH2 0x633 JUMP JUMPDEST DUP1 ISZERO PUSH2 0x30C JUMPI DUP1 PUSH1 0x1F LT PUSH2 0x2E1 JUMPI PUSH2 0x100 DUP1 DUP4 SLOAD DIV MUL DUP4 MSTORE SWAP2 PUSH1 0x20 ADD SWAP2 PUSH2 0x30C JUMP JUMPDEST DUP3 ADD SWAP2 SWAP1 PUSH1 0x0 MSTORE PUSH1 0x20 PUSH1 0x0 KECCAK256 SWAP1 JUMPDEST DUP2 SLOAD DUP2 MSTORE SWAP1 PUSH1 0x1 ADD SWAP1 PUSH1 0x20 ADD DUP1 DUP4 GT PUSH2 0x2EF JUMPI DUP3 SWAP1 SUB PUSH1 0x1F AND DUP3 ADD SWAP2 JUMPDEST POP POP POP POP POP DUP2 JUMP JUMPDEST DUP3 DUP1 SLOAD PUSH2 0x320 SWAP1 PUSH2 0x633 JUMP JUMPDEST SWAP1 PUSH1 0x0 MSTORE PUSH1 0x20 PUSH1 0x0 KECCAK256 SWAP1 PUSH1 0x1F ADD PUSH1 0x20 SWAP1 DIV DUP2 ADD SWAP3 DUP3 PUSH2 0x342 JUMPI PUSH1 0x0 DUP6 SSTORE PUSH2 0x389 JUMP JUMPDEST DUP3 PUSH1 0x1F LT PUSH2 0x35B JUMPI DUP1 MLOAD PUSH1 0xFF NOT AND DUP4 DUP1 ADD OR DUP6 SSTORE PUSH2 0x389 JUMP JUMPDEST DUP3 DUP1 ADD PUSH1 0x1 ADD DUP6 SSTORE DUP3 ISZERO PUSH2 0x389 JUMPI SWAP2 DUP3 ADD JUMPDEST DUP3 DUP2 GT ISZERO PUSH2 0x388 JUMPI DUP3 MLOAD DUP3 SSTORE SWAP2 PUSH1 0x20 ADD SWAP2 SWAP1 PUSH1 0x1 ADD SWAP1 PUSH2 0x36D JUMP JUMPDEST JUMPDEST POP SWAP1 POP PUSH2 0x396 SWAP2 SWAP1 PUSH2 0x39A JUMP JUMPDEST POP SWAP1 JUMP JUMPDEST JUMPDEST DUP1 DUP3 GT ISZERO PUSH2 0x3B3 JUMPI PUSH1 0x0 DUP2 PUSH1 0x0 SWAP1 SSTORE POP PUSH1 0x1 ADD PUSH2 0x39B JUMP JUMPDEST POP SWAP1 JUMP JUMPDEST PUSH1 0x0 DUP2 MLOAD SWAP1 POP SWAP2 SWAP1 POP JUMP JUMPDEST PUSH1 0x0 DUP3 DUP3 MSTORE PUSH1 0x20 DUP3 ADD SWAP1 POP SWAP3 SWAP2 POP POP JUMP JUMPDEST PUSH1 0x0 JUMPDEST DUP4 DUP2 LT ISZERO PUSH2 0x3F1 JUMPI DUP1 DUP3 ADD MLOAD DUP2 DUP5 ADD MSTORE PUSH1 0x20 DUP2 ADD SWAP1 POP PUSH2 0x3D6 JUMP JUMPDEST DUP4 DUP2 GT ISZERO PUSH2 0x400 JUMPI PUSH1 0x0 DUP5 DUP5 ADD MSTORE JUMPDEST POP POP POP POP JUMP JUMPDEST PUSH1 0x0 PUSH1 0x1F NOT PUSH1 0x1F DUP4 ADD AND SWAP1 POP SWAP2 SWAP1 POP JUMP JUMPDEST PUSH1 0x0 PUSH2 0x422 DUP3 PUSH2 0x3B7 JUMP JUMPDEST PUSH2 0x42C DUP2 DUP6 PUSH2 0x3C2 JUMP JUMPDEST SWAP4 POP PUSH2 0x43C DUP2 DUP6 PUSH1 0x20 DUP7 ADD PUSH2 0x3D3 JUMP JUMPDEST PUSH2 0x445 DUP2 PUSH2 0x406 JUMP JUMPDEST DUP5 ADD SWAP2 POP POP SWAP3 SWAP2 POP POP JUMP JUMPDEST PUSH1 0x0 PUSH1 0x20 DUP3 ADD SWAP1 POP DUP2 DUP2 SUB PUSH1 0x0 DUP4 ADD MSTORE PUSH2 0x46A DUP2 DUP5 PUSH2 0x417 JUMP JUMPDEST SWAP1 POP SWAP3 SWAP2 POP POP JUMP JUMPDEST PUSH1 0x0 PUSH1 0x40 MLOAD SWAP1 POP SWAP1 JUMP JUMPDEST PUSH1 0x0 DUP1 REVERT JUMPDEST PUSH1 0x0 DUP1 REVERT JUMPDEST PUSH1 0x0 DUP1 REVERT JUMPDEST PUSH1 0x0 DUP1 REVERT JUMPDEST PUSH32 0x4E487B7100000000000000000000000000000000000000000000000000000000 PUSH1 0x0 MSTORE PUSH1 0x41 PUSH1 0x4 MSTORE PUSH1 0x24 PUSH1 0x0 REVERT JUMPDEST PUSH2 0x4C8 DUP3 PUSH2 0x406 JUMP JUMPDEST DUP2 ADD DUP2 DUP2 LT PUSH8 0xFFFFFFFFFFFFFFFF DUP3 GT OR ISZERO PUSH2 0x4E7 JUMPI PUSH2 0x4E6 PUSH2 0x490 JUMP JUMPDEST JUMPDEST DUP1 PUSH1 0x40 MSTORE POP POP POP JUMP JUMPDEST PUSH1 0x0 PUSH2 0x4FA PUSH2 0x472 JUMP JUMPDEST SWAP1 POP PUSH2 0x506 DUP3 DUP3 PUSH2 0x4BF JUMP JUMPDEST SWAP2 SWAP1 POP JUMP JUMPDEST PUSH1 0x0 PUSH8 0xFFFFFFFFFFFFFFFF DUP3 GT ISZERO PUSH2 0x526 JUMPI PUSH2 0x525 PUSH2 0x490 JUMP JUMPDEST JUMPDEST PUSH2 0x52F DUP3 PUSH2 0x406 JUMP JUMPDEST SWAP1 POP PUSH1 0x20 DUP2 ADD SWAP1 POP SWAP2 SWAP1 POP JUMP JUMPDEST DUP3 DUP2 DUP4 CALLDATACOPY PUSH1 0x0 DUP4 DUP4 ADD MSTORE POP POP POP JUMP JUMPDEST PUSH1 0x0 PUSH2 0x55E PUSH2 0x559 DUP5 PUSH2 0x50B JUMP JUMPDEST PUSH2 0x4F0 JUMP JUMPDEST SWAP1 POP DUP3 DUP2 MSTORE PUSH1 0x20 DUP2 ADD DUP5 DUP5 DUP5 ADD GT ISZERO PUSH2 0x57A JUMPI PUSH2 0x579 PUSH2 0x48B JUMP JUMPDEST JUMPDEST PUSH2 0x585 DUP5 DUP3 DUP6 PUSH2 0x53C JUMP JUMPDEST POP SWAP4 SWAP3 POP POP POP JUMP JUMPDEST PUSH1 0x0 DUP3 PUSH1 0x1F DUP4 ADD SLT PUSH2 0x5A2 JUMPI PUSH2 0x5A1 PUSH2 0x486 JUMP JUMPDEST JUMPDEST DUP2 CALLDATALOAD PUSH2 0x5B2 DUP5 DUP3 PUSH1 0x20 DUP7 ADD PUSH2 0x54B JUMP JUMPDEST SWAP2 POP POP SWAP3 SWAP2 POP POP JUMP JUMPDEST PUSH1 0x0 PUSH1 0x20 DUP3 DUP5 SUB SLT ISZERO PUSH2 0x5D1 JUMPI PUSH2 0x5D0 PUSH2 0x47C JUMP JUMPDEST JUMPDEST PUSH1 0x0 DUP3 ADD CALLDATALOAD PUSH8 0xFFFFFFFFFFFFFFFF DUP2 GT ISZERO PUSH2 0x5EF JUMPI PUSH2 0x5EE PUSH2 0x481 JUMP JUMPDEST JUMPDEST PUSH2 0x5FB DUP5 DUP3 DUP6 ADD PUSH2 0x58D JUMP JUMPDEST SWAP2 POP POP SWAP3 SWAP2 POP POP JUMP JUMPDEST PUSH32 0x4E487B7100000000000000000000000000000000000000000000000000000000 PUSH1 0x0 MSTORE PUSH1 0x22 PUSH1 0x4 MSTORE PUSH1 0x24 PUSH1 0x0 REVERT JUMPDEST PUSH1 0x0 PUSH1 0x2 DUP3 DIV SWAP1 POP PUSH1 0x1 DUP3 AND DUP1 PUSH2 0x64B JUMPI PUSH1 0x7F DUP3 AND SWAP2 POP JUMPDEST PUSH1 0x20 DUP3 LT DUP2 EQ ISZERO PUSH2 0x65F JUMPI PUSH2 0x65E PUSH2 0x604 JUMP JUMPDEST JUMPDEST POP SWAP2 SWAP1 POP JUMP INVALID CHAINID PUSH2 0x726D KECCAK256 PUSH5 0x6174612072 PUSH6 0x717565737465 PUSH5 0x2120436865 PUSH4 0x6B207468 PUSH6 0x2049504E5320 PUSH12 0x657944657669636520646174 PUSH2 0x2072 PUSH6 0x717565737465 PUSH5 0x2120436865 PUSH4 0x6B207468 PUSH6 0x2049504E5320 PUSH12 0x6579A2646970667358221220 PUSH8 0xF3390FADE94F4C10 KECCAK256 SHR MLOAD 0xE2 0xDD KECCAK256 0xCF 0x2F 0xE1 0xF8 JUMP PUSH32 0x71ACF4460E100AFEB61CC64736F6C63430008090033A2646970667358221220 SIGNEXTEND 0xFB CHAINID 0xBF 0xCF MSIZE PUSH18 0xFBDDEBF60BBD07514E4B446F97598C78B140 SSTORE 0xB9 CALLVALUE 0xAC DUP9 PUSH27 0xF164736F6C63430008090033000000000000000000000000000000 "},"methodIdentifiers":{"catalogIpnsKey()":"e20b937f","createFarm(string,string)":"e6aaf9cc","farmMenuListIpnsKey()":"0f5b7a92","farmMenuListSecretKey()":"8d18dded","setFarmMenuListIpnsKey(string)":"b71cc078","setFarmMenuListSecretKey(string)":"0fba35be","setIpnsKey(string)":"4e728665"}}}}}