{
  "_format": "hh-sol-artifact-1",
  "contractName": "FarmMenu",
  "sourceName": "contracts/Catalog.sol",
  "abi": [
    {
      "inputs": [
        {
          "internalType": "string",
          "name": "_farmId",
          "type": "string"
        },
        {
          "internalType": "string",
          "name": "_output_ipns_pk",
          "type": "string"
        }
      ],
      "stateMutability": "nonpayable",
      "type": "constructor"
    },
    {
      "anonymous": false,
      "inputs": [
        {
          "indexed": false,
          "internalType": "string",
          "name": "deviceId",
          "type": "string"
        }
      ],
      "name": "DataDeviceRequested",
      "type": "event"
    },
    {
      "anonymous": false,
      "inputs": [],
      "name": "FarmDataRequested",
      "type": "event"
    },
    {
      "anonymous": false,
      "inputs": [
        {
          "indexed": false,
          "internalType": "string",
          "name": "outputIpnsPk",
          "type": "string"
        }
      ],
      "name": "IpnsUpdated",
      "type": "event"
    },
    {
      "inputs": [],
      "name": "farmId",
      "outputs": [
        {
          "internalType": "string",
          "name": "",
          "type": "string"
        }
      ],
      "stateMutability": "view",
      "type": "function"
    },
    {
      "inputs": [],
      "name": "outputIpnsPk",
      "outputs": [
        {
          "internalType": "string",
          "name": "",
          "type": "string"
        }
      ],
      "stateMutability": "view",
      "type": "function"
    },
    {
      "inputs": [
        {
          "internalType": "string",
          "name": "_device_id",
          "type": "string"
        }
      ],
      "name": "requestDeviceData",
      "outputs": [
        {
          "internalType": "string",
          "name": "",
          "type": "string"
        }
      ],
      "stateMutability": "nonpayable",
      "type": "function"
    },
    {
      "inputs": [],
      "name": "requestFarmData",
      "outputs": [
        {
          "internalType": "string",
          "name": "",
          "type": "string"
        }
      ],
      "stateMutability": "nonpayable",
      "type": "function"
    },
    {
      "inputs": [
        {
          "internalType": "string",
          "name": "_output_ipns_pk",
          "type": "string"
        }
      ],
      "name": "updateIpnsPk",
      "outputs": [],
      "stateMutability": "nonpayable",
      "type": "function"
    }
  ],
  "bytecode": "0x60806040523480156200001157600080fd5b5060405162000aa338038062000aa38339818101604052810190620000379190620002be565b81600090805190602001906200004f92919062000071565b5080600190805190602001906200006892919062000071565b505050620003a8565b8280546200007f9062000372565b90600052602060002090601f016020900481019282620000a35760008555620000ef565b82601f10620000be57805160ff1916838001178555620000ef565b82800160010185558215620000ef579182015b82811115620000ee578251825591602001919060010190620000d1565b5b509050620000fe919062000102565b5090565b5b808211156200011d57600081600090555060010162000103565b5090565b6000604051905090565b600080fd5b600080fd5b600080fd5b600080fd5b6000601f19601f8301169050919050565b7f4e487b7100000000000000000000000000000000000000000000000000000000600052604160045260246000fd5b6200018a826200013f565b810181811067ffffffffffffffff82111715620001ac57620001ab62000150565b5b80604052505050565b6000620001c162000121565b9050620001cf82826200017f565b919050565b600067ffffffffffffffff821115620001f257620001f162000150565b5b620001fd826200013f565b9050602081019050919050565b60005b838110156200022a5780820151818401526020810190506200020d565b838111156200023a576000848401525b50505050565b6000620002576200025184620001d4565b620001b5565b9050828152602081018484840111156200027657620002756200013a565b5b620002838482856200020a565b509392505050565b600082601f830112620002a357620002a262000135565b5b8151620002b584826020860162000240565b91505092915050565b60008060408385031215620002d857620002d76200012b565b5b600083015167ffffffffffffffff811115620002f957620002f862000130565b5b62000307858286016200028b565b925050602083015167ffffffffffffffff8111156200032b576200032a62000130565b5b62000339858286016200028b565b9150509250929050565b7f4e487b7100000000000000000000000000000000000000000000000000000000600052602260045260246000fd5b600060028204905060018216806200038b57607f821691505b60208210811415620003a257620003a162000343565b5b50919050565b6106eb80620003b86000396000f3fe608060405234801561001057600080fd5b50600436106100575760003560e01c8063278de0001461005c578063475fc0f41461007a57806349e3915b146100aa5780638c22deaf146100c8578063a8cf7593146100e4575b600080fd5b610064610102565b6040516100719190610450565b60405180910390f35b610094600480360381019061008f91906105bb565b610190565b6040516100a19190610450565b60405180910390f35b6100b26101e9565b6040516100bf9190610450565b60405180910390f35b6100e260048036038101906100dd91906105bb565b610235565b005b6100ec610286565b6040516100f99190610450565b60405180910390f35b6000805461010f90610633565b80601f016020809104026020016040519081016040528092919081815260200182805461013b90610633565b80156101885780601f1061015d57610100808354040283529160200191610188565b820191906000526020600020905b81548152906001019060200180831161016b57829003601f168201915b505050505081565b60607f92c8ae1be97440da1f7f30fb5b39a98e3e352284ec632f81dbe4968ec35f5696826040516101c19190610450565b60405180910390a160405180606001604052806029815260200161068d602991399050919050565b60607f513f2213bca64463a207dd663bec29171d4ab06a1b71a1fd8c4bd2e66c6837d560405160405180910390a160405180606001604052806027815260200161066660279139905090565b806001908051906020019061024b929190610314565b507f275554b9e84105477212781091b7b08f2b148d56eee0f3c2f8ffd99730cb853c8160405161027b9190610450565b60405180910390a150565b6001805461029390610633565b80601f01602080910402602001604051908101604052809291908181526020018280546102bf90610633565b801561030c5780601f106102e15761010080835404028352916020019161030c565b820191906000526020600020905b8154815290600101906020018083116102ef57829003601f168201915b505050505081565b82805461032090610633565b90600052602060002090601f0160209004810192826103425760008555610389565b82601f1061035b57805160ff1916838001178555610389565b82800160010185558215610389579182015b8281111561038857825182559160200191906001019061036d565b5b509050610396919061039a565b5090565b5b808211156103b357600081600090555060010161039b565b5090565b600081519050919050565b600082825260208201905092915050565b60005b838110156103f15780820151818401526020810190506103d6565b83811115610400576000848401525b50505050565b6000601f19601f8301169050919050565b6000610422826103b7565b61042c81856103c2565b935061043c8185602086016103d3565b61044581610406565b840191505092915050565b6000602082019050818103600083015261046a8184610417565b905092915050565b6000604051905090565b600080fd5b600080fd5b600080fd5b600080fd5b7f4e487b7100000000000000000000000000000000000000000000000000000000600052604160045260246000fd5b6104c882610406565b810181811067ffffffffffffffff821117156104e7576104e6610490565b5b80604052505050565b60006104fa610472565b905061050682826104bf565b919050565b600067ffffffffffffffff82111561052657610525610490565b5b61052f82610406565b9050602081019050919050565b82818337600083830152505050565b600061055e6105598461050b565b6104f0565b90508281526020810184848401111561057a5761057961048b565b5b61058584828561053c565b509392505050565b600082601f8301126105a2576105a1610486565b5b81356105b284826020860161054b565b91505092915050565b6000602082840312156105d1576105d061047c565b5b600082013567ffffffffffffffff8111156105ef576105ee610481565b5b6105fb8482850161058d565b91505092915050565b7f4e487b7100000000000000000000000000000000000000000000000000000000600052602260045260246000fd5b6000600282049050600182168061064b57607f821691505b6020821081141561065f5761065e610604565b5b5091905056fe4661726d2064617461207265717565737465642120436865636b207468652049504e53206b65794465766963652064617461207265717565737465642120436865636b207468652049504e53206b6579a264697066735822122067f3390fade94f4c10201c51e2dd20cf2fe1f8567f071acf4460e100afeb61cc64736f6c63430008090033",
  "linkReferences": {},
  "deployedLinkReferences": {}
}